{
  "contractName": "Lottery",
  "abi": [
    {
      "inputs": [
        {
          "internalType": "address",
          "name": "_ethUsdPriceFeed",
          "type": "address"
        }
      ],
      "stateMutability": "nonpayable",
      "type": "constructor"
    },
    {
      "anonymous": false,
      "inputs": [
        {
          "indexed": true,
          "internalType": "address",
          "name": "previousOwner",
          "type": "address"
        },
        {
          "indexed": true,
          "internalType": "address",
          "name": "newOwner",
          "type": "address"
        }
      ],
      "name": "OwnershipTransferred",
      "type": "event"
    },
    {
      "inputs": [],
      "name": "lotteryState",
      "outputs": [
        {
          "internalType": "enum Lottery.LOTTERY_STATE",
          "name": "",
          "type": "uint8"
        }
      ],
      "stateMutability": "view",
      "type": "function"
    },
    {
      "inputs": [],
      "name": "owner",
      "outputs": [
        {
          "internalType": "address",
          "name": "",
          "type": "address"
        }
      ],
      "stateMutability": "view",
      "type": "function"
    },
    {
      "inputs": [
        {
          "internalType": "uint256",
          "name": "",
          "type": "uint256"
        }
      ],
      "name": "players",
      "outputs": [
        {
          "internalType": "address payable",
          "name": "",
          "type": "address"
        }
      ],
      "stateMutability": "view",
      "type": "function"
    },
    {
      "inputs": [],
      "name": "randomness",
      "outputs": [
        {
          "internalType": "uint256",
          "name": "",
          "type": "uint256"
        }
      ],
      "stateMutability": "view",
      "type": "function"
    },
    {
      "inputs": [],
      "name": "renounceOwnership",
      "outputs": [],
      "stateMutability": "nonpayable",
      "type": "function"
    },
    {
      "inputs": [
        {
          "internalType": "address",
          "name": "newOwner",
          "type": "address"
        }
      ],
      "name": "transferOwnership",
      "outputs": [],
      "stateMutability": "nonpayable",
      "type": "function"
    },
    {
      "inputs": [],
      "name": "enter",
      "outputs": [],
      "stateMutability": "payable",
      "type": "function"
    },
    {
      "inputs": [],
      "name": "getEntranceFee",
      "outputs": [
        {
          "internalType": "uint256",
          "name": "",
          "type": "uint256"
        }
      ],
      "stateMutability": "view",
      "type": "function"
    },
    {
      "inputs": [],
      "name": "getLatestEthUsdPrice",
      "outputs": [
        {
          "internalType": "uint256",
          "name": "",
          "type": "uint256"
        }
      ],
      "stateMutability": "view",
      "type": "function"
    },
    {
      "inputs": [],
      "name": "startLottery",
      "outputs": [],
      "stateMutability": "nonpayable",
      "type": "function"
    }
  ],
  "bytecode": "0x608060405234801561001057600080fd5b50604051610c19380380610c198339818101604052602081101561003357600080fd5b8101908080519060200190929190505050600061005461016560201b60201c565b9050806000806101000a81548173ffffffffffffffffffffffffffffffffffffffff021916908373ffffffffffffffffffffffffffffffffffffffff1602179055508073ffffffffffffffffffffffffffffffffffffffff16600073ffffffffffffffffffffffffffffffffffffffff167f8be0079c531659141344cd1fd0a4f28419497f9722a3daafe3b4186f6b6457e060405160405180910390a35080600160006101000a81548173ffffffffffffffffffffffffffffffffffffffff021916908373ffffffffffffffffffffffffffffffffffffffff16021790555060326002819055506001600060146101000a81548160ff0219169083600281111561015a57fe5b02179055505061016d565b600033905090565b610a9d8061017c6000396000f3fe6080604052600436106100915760003560e01c8063715018a611610059578063715018a6146101675780638da5cb5b1461017e578063e97dcb62146101d5578063f2fde38b146101df578063f71d96cb1461023057610091565b806309bc33a714610096578063160344e2146100c157806330214599146100d857806336013189146101035780636939864b1461012e575b600080fd5b3480156100a257600080fd5b506100ab6102ab565b6040518082815260200191505060405180910390f35b3480156100cd57600080fd5b506100d66102e6565b005b3480156100e457600080fd5b506100ed61045d565b6040518082815260200191505060405180910390f35b34801561010f57600080fd5b50610118610546565b6040518082815260200191505060405180910390f35b34801561013a57600080fd5b5061014361054c565b6040518082600281111561015357fe5b60ff16815260200191505060405180910390f35b34801561017357600080fd5b5061017c61055f565b005b34801561018a57600080fd5b506101936106cd565b604051808273ffffffffffffffffffffffffffffffffffffffff1673ffffffffffffffffffffffffffffffffffffffff16815260200191505060405180910390f35b6101dd6106f6565b005b3480156101eb57600080fd5b5061022e6004803603602081101561020257600080fd5b81019080803573ffffffffffffffffffffffffffffffffffffffff16906020019092919050505061080a565b005b34801561023c57600080fd5b506102696004803603602081101561025357600080fd5b81019080803590602001909291905050506109fd565b604051808273ffffffffffffffffffffffffffffffffffffffff1673ffffffffffffffffffffffffffffffffffffffff16815260200191505060405180910390f35b600080670de0b6b3a7640000905060006102c361045d565b905060006305f5e100600254028284816102d957fe5b0402905080935050505090565b6102ee610a39565b73ffffffffffffffffffffffffffffffffffffffff1661030c6106cd565b73ffffffffffffffffffffffffffffffffffffffff1614610395576040517f08c379a00000000000000000000000000000000000000000000000000000000081526004018080602001828103825260208152602001807f4f776e61626c653a2063616c6c6572206973206e6f7420746865206f776e657281525060200191505060405180910390fd5b600160028111156103a257fe5b600060149054906101000a900460ff1660028111156103bd57fe5b14610430576040517f08c379a00000000000000000000000000000000000000000000000000000000081526004018080602001828103825260198152602001807f43616e27742073746172742061206e6577206c6f74746572790000000000000081525060200191505060405180910390fd5b60008060146101000a81548160ff0219169083600281111561044e57fe5b02179055506000600381905550565b600080600080600080600160009054906101000a900473ffffffffffffffffffffffffffffffffffffffff1673ffffffffffffffffffffffffffffffffffffffff1663feaf968c6040518163ffffffff1660e01b815260040160a06040518083038186803b1580156104ce57600080fd5b505afa1580156104e2573d6000803e3d6000fd5b505050506040513d60a08110156104f857600080fd5b81019080805190602001909291908051906020019092919080519060200190929190805190602001909291908051906020019092919050505094509450945094509450839550505050505090565b60035481565b600060149054906101000a900460ff1681565b610567610a39565b73ffffffffffffffffffffffffffffffffffffffff166105856106cd565b73ffffffffffffffffffffffffffffffffffffffff161461060e576040517f08c379a00000000000000000000000000000000000000000000000000000000081526004018080602001828103825260208152602001807f4f776e61626c653a2063616c6c6572206973206e6f7420746865206f776e657281525060200191505060405180910390fd5b600073ffffffffffffffffffffffffffffffffffffffff166000809054906101000a900473ffffffffffffffffffffffffffffffffffffffff1673ffffffffffffffffffffffffffffffffffffffff167f8be0079c531659141344cd1fd0a4f28419497f9722a3daafe3b4186f6b6457e060405160405180910390a360008060006101000a81548173ffffffffffffffffffffffffffffffffffffffff021916908373ffffffffffffffffffffffffffffffffffffffff160217905550565b60008060009054906101000a900473ffffffffffffffffffffffffffffffffffffffff16905090565b6106fe6102ab565b341015610773576040517f08c379a00000000000000000000000000000000000000000000000000000000081526004018080602001828103825260198152602001807f4e6f7420656e6f756768742045544820746f20656e746572210000000000000081525060200191505060405180910390fd5b6000600281111561078057fe5b600060149054906101000a900460ff16600281111561079b57fe5b146107a557600080fd5b6004339080600181540180825580915050600190039060005260206000200160009091909190916101000a81548173ffffffffffffffffffffffffffffffffffffffff021916908373ffffffffffffffffffffffffffffffffffffffff160217905550565b610812610a39565b73ffffffffffffffffffffffffffffffffffffffff166108306106cd565b73ffffffffffffffffffffffffffffffffffffffff16146108b9576040517f08c379a00000000000000000000000000000000000000000000000000000000081526004018080602001828103825260208152602001807f4f776e61626c653a2063616c6c6572206973206e6f7420746865206f776e657281525060200191505060405180910390fd5b600073ffffffffffffffffffffffffffffffffffffffff168173ffffffffffffffffffffffffffffffffffffffff16141561093f576040517f08c379a0000000000000000000000000000000000000000000000000000000008152600401808060200182810382526026815260200180610a426026913960400191505060405180910390fd5b8073ffffffffffffffffffffffffffffffffffffffff166000809054906101000a900473ffffffffffffffffffffffffffffffffffffffff1673ffffffffffffffffffffffffffffffffffffffff167f8be0079c531659141344cd1fd0a4f28419497f9722a3daafe3b4186f6b6457e060405160405180910390a3806000806101000a81548173ffffffffffffffffffffffffffffffffffffffff021916908373ffffffffffffffffffffffffffffffffffffffff16021790555050565b60048181548110610a0a57fe5b906000526020600020016000915054906101000a900473ffffffffffffffffffffffffffffffffffffffff1681565b60003390509056fe4f776e61626c653a206e6577206f776e657220697320746865207a65726f2061646472657373a2646970667358221220d5ace65f0e6132c99111a5b41fe3530ef4ffb25d6abd3ac193b553366289d25164736f6c63430006060033",
  "immutableReferences": {},
  "source": "pragma solidity ^0.6.6;\n\nimport \"@chainlink/contracts/src/v0.6/interfaces/AggregatorV3Interface.sol\";\nimport \"@chainlink/contracts/src/v0.6/vendor/SafeMathChainlink.sol\";\nimport \"@openzeppelin/contracts/access/Ownable.sol\";\n\ncontract Lottery is Ownable{\n    using SafeMathChainlink for uint256;\n\n    enum LOTTERY_STATE {OPEN, CLOSED, CALCULATING_WINNER}\n    \n    LOTTERY_STATE public lotteryState;\n    AggregatorV3Interface internal ethUsdPriceFeed;\n    uint256 usdEntryFee;\n    uint256 public randomness;\n    address payable [] public players;\n\n    constructor(address _ethUsdPriceFeed) public {\n        ethUsdPriceFeed = AggregatorV3Interface(_ethUsdPriceFeed);\n        usdEntryFee = 50;\n        lotteryState = LOTTERY_STATE.CLOSED;\n    }\n\n    function enter() public payable {\n        require(msg.value >= getEntranceFee(), \"Not enought ETH to enter!\");\n        require(lotteryState == LOTTERY_STATE.OPEN);\n        players.push(msg.sender);\n\n    }\n\n    function getEntranceFee() public view returns(uint256) {\n        uint256 precision = 1 * 10 ** 18;\n        uint256 price = getLatestEthUsdPrice();\n        uint256 costToEnter = (precision / price) * (usdEntryFee * 100000000);\n        return costToEnter;\n    }\n\n    function getLatestEthUsdPrice() public view returns(uint256) {\n        (\n            uint80 roundID, \n            int price,\n            uint startedAt,\n            uint timeStamp,\n            uint80 answeredInRound\n        ) = ethUsdPriceFeed.latestRoundData();\n        return uint256(price);\n    }\n\n    function startLottery() public onlyOwner{\n        require(lotteryState == LOTTERY_STATE.CLOSED, \"Can't start a new lottery\");\n        lotteryState = LOTTERY_STATE.OPEN;\n        randomness = 0;\n\n    }\n\n    // function endLottery() public {\n\n    // }\n\n    // function pickWinner() {\n\n    // }\n}",
  "sourcePath": "/Users/lohba/Documents/Projects/lottery/contracts/Lottery.sol",
  "compiler": {
    "name": "solc",
    "version": "0.6.6+commit.6c089d02.Emscripten.clang"
  },
  "schemaVersion": "3.4.1",
  "updatedAt": "2021-05-16T02:31:12.696Z",
  "devdoc": {
    "methods": {
      "owner()": {
        "details": "Returns the address of the current owner."
      },
      "renounceOwnership()": {
        "details": "Leaves the contract without owner. It will not be possible to call `onlyOwner` functions anymore. Can only be called by the current owner.     * NOTE: Renouncing ownership will leave the contract without an owner, thereby removing any functionality that is only available to the owner."
      },
      "transferOwnership(address)": {
        "details": "Transfers ownership of the contract to a new account (`newOwner`). Can only be called by the current owner."
      }
    }
  },
  "userdoc": {
    "methods": {}
  }
}